{
  "contractName": "Ibere",
  "abi": [
    {
      "inputs": [],
      "name": "activeLoans",
      "outputs": [
        {
          "internalType": "uint256",
          "name": "",
          "type": "uint256"
        }
      ],
      "stateMutability": "view",
      "type": "function"
    },
    {
      "inputs": [],
      "name": "id",
      "outputs": [
        {
          "internalType": "uint256",
          "name": "",
          "type": "uint256"
        }
      ],
      "stateMutability": "view",
      "type": "function"
    },
    {
      "inputs": [
        {
          "internalType": "address",
          "name": "",
          "type": "address"
        }
      ],
      "name": "lendersBalance",
      "outputs": [
        {
          "internalType": "uint256",
          "name": "",
          "type": "uint256"
        }
      ],
      "stateMutability": "view",
      "type": "function"
    },
    {
      "inputs": [
        {
          "internalType": "uint256",
          "name": "",
          "type": "uint256"
        }
      ],
      "name": "requests",
      "outputs": [
        {
          "internalType": "enum Ibere.Status",
          "name": "status",
          "type": "uint8"
        },
        {
          "internalType": "uint256",
          "name": "requestedAmount",
          "type": "uint256"
        },
        {
          "internalType": "uint256",
          "name": "collvalue",
          "type": "uint256"
        },
        {
          "internalType": "uint256",
          "name": "duration",
          "type": "uint256"
        },
        {
          "internalType": "uint256",
          "name": "dueTime",
          "type": "uint256"
        },
        {
          "internalType": "address",
          "name": "borrower",
          "type": "address"
        },
        {
          "internalType": "address",
          "name": "lender",
          "type": "address"
        },
        {
          "internalType": "contract IERC20",
          "name": "requestedToken",
          "type": "address"
        },
        {
          "internalType": "contract IERC20",
          "name": "collToken",
          "type": "address"
        },
        {
          "internalType": "uint256",
          "name": "interestRate",
          "type": "uint256"
        },
        {
          "internalType": "uint256",
          "name": "expirationRequest",
          "type": "uint256"
        }
      ],
      "stateMutability": "view",
      "type": "function"
    },
    {
      "inputs": [
        {
          "internalType": "address",
          "name": "_borrower",
          "type": "address"
        },
        {
          "internalType": "uint256",
          "name": "_requestedAmount",
          "type": "uint256"
        },
        {
          "internalType": "address",
          "name": "_requestedToken",
          "type": "address"
        },
        {
          "internalType": "address",
          "name": "_collToken",
          "type": "address"
        },
        {
          "internalType": "uint256",
          "name": "_expirationRequest",
          "type": "uint256"
        },
        {
          "internalType": "uint256",
          "name": "_interestRate",
          "type": "uint256"
        },
        {
          "internalType": "uint256",
          "name": "_collValue",
          "type": "uint256"
        },
        {
          "internalType": "uint256",
          "name": "_duration",
          "type": "uint256"
        }
      ],
      "name": "createRequest",
      "outputs": [
        {
          "internalType": "uint256",
          "name": "",
          "type": "uint256"
        }
      ],
      "stateMutability": "nonpayable",
      "type": "function"
    },
    {
      "inputs": [
        {
          "internalType": "uint256",
          "name": "id",
          "type": "uint256"
        }
      ],
      "name": "fillRequest",
      "outputs": [
        {
          "internalType": "bool",
          "name": "",
          "type": "bool"
        }
      ],
      "stateMutability": "nonpayable",
      "type": "function"
    },
    {
      "inputs": [
        {
          "internalType": "uint256",
          "name": "id",
          "type": "uint256"
        },
        {
          "internalType": "uint256",
          "name": "_amount",
          "type": "uint256"
        },
        {
          "internalType": "address",
          "name": "_from",
          "type": "address"
        }
      ],
      "name": "payLoan",
      "outputs": [
        {
          "internalType": "bool",
          "name": "",
          "type": "bool"
        }
      ],
      "stateMutability": "nonpayable",
      "type": "function"
    }
  ],
  "bytecode": "0x6080604052600080556003805534801561001857600080fd5b50611613806100286000396000f3fe608060405234801561001057600080fd5b506004361061007d5760003560e01c80639c0750f51161005b5780639c0750f51461010a578063aa052ff11461013a578063af640d0f1461016a578063c8319295146101885761007d565b80631d5ebb0214610082578063416b40c7146100b257806381d12c58146100d0575b600080fd5b61009c60048036038101906100979190611061565b6101b8565b6040516100a99190611126565b60405180910390f35b6100ba6106d2565b6040516100c79190611126565b60405180910390f35b6100ea60048036038101906100e59190611141565b6106d8565b6040516101019b9a99989796959493929190611253565b60405180910390f35b610124600480360381019061011f9190611141565b6107bf565b6040516101319190611319565b60405180910390f35b610154600480360381019061014f9190611334565b610b96565b6040516101619190611126565b60405180910390f35b610172610bae565b60405161017f9190611126565b60405180910390f35b6101a2600480360381019061019d9190611361565b610bb4565b6040516101af9190611319565b60405180910390f35b6000808814156101c757600080fd5b60008414156101d557600080fd5b4285116101e157600080fd5b828673ffffffffffffffffffffffffffffffffffffffff166370a08231336040518263ffffffff1660e01b815260040161021b91906113b4565b602060405180830381865afa158015610238573d6000803e3d6000fd5b505050506040513d601f19601f8201168201806040525081019061025c91906113e4565b101561026757600080fd5b6000600660006002548152602001908152602001600020905060008160000160006101000a81548160ff021916908360038111156102a8576102a761116e565b5b0217905550888160010181905550338160050160006101000a81548173ffffffffffffffffffffffffffffffffffffffff021916908373ffffffffffffffffffffffffffffffffffffffff16021790555060008160060160006101000a81548173ffffffffffffffffffffffffffffffffffffffff021916908373ffffffffffffffffffffffffffffffffffffffff160217905550878160070160006101000a81548173ffffffffffffffffffffffffffffffffffffffff021916908373ffffffffffffffffffffffffffffffffffffffff160217905550868160080160006101000a81548173ffffffffffffffffffffffffffffffffffffffff021916908373ffffffffffffffffffffffffffffffffffffffff1602179055508281600301819055508581600a018190555084816009018190555083816002018190555060058190806001815401808255809150506001900390600052602060002090600b02016000909190919091506000820160009054906101000a900460ff168160000160006101000a81548160ff0219169083600381111561044b5761044a61116e565b5b0217905550600182015481600101556002820154816002015560038201548160030155600482015481600401556005820160009054906101000a900473ffffffffffffffffffffffffffffffffffffffff168160050160006101000a81548173ffffffffffffffffffffffffffffffffffffffff021916908373ffffffffffffffffffffffffffffffffffffffff1602179055506006820160009054906101000a900473ffffffffffffffffffffffffffffffffffffffff168160060160006101000a81548173ffffffffffffffffffffffffffffffffffffffff021916908373ffffffffffffffffffffffffffffffffffffffff1602179055506007820160009054906101000a900473ffffffffffffffffffffffffffffffffffffffff168160070160006101000a81548173ffffffffffffffffffffffffffffffffffffffff021916908373ffffffffffffffffffffffffffffffffffffffff1602179055506008820160009054906101000a900473ffffffffffffffffffffffffffffffffffffffff168160080160006101000a81548173ffffffffffffffffffffffffffffffffffffffff021916908373ffffffffffffffffffffffffffffffffffffffff16021790555060098201548160090155600a82015481600a015550506000600160058054905061063e9190611440565b90508773ffffffffffffffffffffffffffffffffffffffff166323b872dd3330886040518463ffffffff1660e01b815260040161067d93929190611474565b6020604051808303816000875af115801561069c573d6000803e3d6000fd5b505050506040513d601f19601f820116820180604052508101906106c091906114d7565b50809250505098975050505050505050565b60005481565b60066020528060005260406000206000915090508060000160009054906101000a900460ff16908060010154908060020154908060030154908060040154908060050160009054906101000a900473ffffffffffffffffffffffffffffffffffffffff16908060060160009054906101000a900473ffffffffffffffffffffffffffffffffffffffff16908060070160009054906101000a900473ffffffffffffffffffffffffffffffffffffffff16908060080160009054906101000a900473ffffffffffffffffffffffffffffffffffffffff169080600901549080600a015490508b565b600080600660008481526020019081526020016000209050600060038111156107eb576107ea61116e565b5b8160000160009054906101000a900460ff16600381111561080f5761080e61116e565b5b50504281600a0154101561082257600080fd5b80600101548160070160009054906101000a900473ffffffffffffffffffffffffffffffffffffffff1673ffffffffffffffffffffffffffffffffffffffff166370a08231336040518263ffffffff1660e01b815260040161088491906113b4565b602060405180830381865afa1580156108a1573d6000803e3d6000fd5b505050506040513d601f19601f820116820180604052508101906108c591906113e4565b10156108d057600080fd5b338160060160006101000a81548173ffffffffffffffffffffffffffffffffffffffff021916908373ffffffffffffffffffffffffffffffffffffffff16021790555080600301544264ffffffffff1661092a9190611504565b816004018190555060018160000160006101000a81548160ff0219169083600381111561095a5761095961116e565b5b021790555060016000808282546109719190611504565b9250508190555060018060008360060160009054906101000a900473ffffffffffffffffffffffffffffffffffffffff1673ffffffffffffffffffffffffffffffffffffffff1673ffffffffffffffffffffffffffffffffffffffff16815260200190815260200160002060008282546109eb9190611504565b925050819055506000610a048260090154600354610f3c565b90508160070160009054906101000a900473ffffffffffffffffffffffffffffffffffffffff1673ffffffffffffffffffffffffffffffffffffffff166323b872dd3330846040518463ffffffff1660e01b8152600401610a6793929190611474565b6020604051808303816000875af1158015610a86573d6000803e3d6000fd5b505050506040513d601f19601f82011682018060405250810190610aaa91906114d7565b506000610abf83600901548460010154610f81565b90508260070160009054906101000a900473ffffffffffffffffffffffffffffffffffffffff1673ffffffffffffffffffffffffffffffffffffffff166323b872dd338560050160009054906101000a900473ffffffffffffffffffffffffffffffffffffffff16846040518463ffffffff1660e01b8152600401610b4693929190611474565b6020604051808303816000875af1158015610b65573d6000803e3d6000fd5b505050506040513d601f19601f82011682018060405250810190610b8991906114d7565b5060019350505050919050565b60016020528060005260406000206000915090505481565b60025481565b60008060066000868152602001908152602001600020905060016003811115610be057610bdf61116e565b5b8160000160009054906101000a900460ff166003811115610c0457610c0361116e565b5b5050838160070160009054906101000a900473ffffffffffffffffffffffffffffffffffffffff1673ffffffffffffffffffffffffffffffffffffffff166370a08231336040518263ffffffff1660e01b8152600401610c6491906113b4565b602060405180830381865afa158015610c81573d6000803e3d6000fd5b505050506040513d601f19601f82011682018060405250810190610ca591906113e4565b1015610cb057600080fd5b838160010181905550828160050160006101000a81548173ffffffffffffffffffffffffffffffffffffffff021916908373ffffffffffffffffffffffffffffffffffffffff16021790555060028160000160006101000a81548160ff02191690836003811115610d2457610d2361116e565b5b02179055506001600080828254610d3b9190611440565b9250508190555060018060008360060160009054906101000a900473ffffffffffffffffffffffffffffffffffffffff1673ffffffffffffffffffffffffffffffffffffffff1673ffffffffffffffffffffffffffffffffffffffff1681526020019081526020016000206000828254610db59190611440565b925050819055508060080160009054906101000a900473ffffffffffffffffffffffffffffffffffffffff1673ffffffffffffffffffffffffffffffffffffffff1663a9059cbb8483600201546040518363ffffffff1660e01b8152600401610e1f92919061155a565b6020604051808303816000875af1158015610e3e573d6000803e3d6000fd5b505050506040513d601f19601f82011682018060405250810190610e6291906114d7565b508060070160009054906101000a900473ffffffffffffffffffffffffffffffffffffffff1673ffffffffffffffffffffffffffffffffffffffff166323b872dd338360060160009054906101000a900473ffffffffffffffffffffffffffffffffffffffff1684600101546040518463ffffffff1660e01b8152600401610eec93929190611474565b6020604051808303816000875af1158015610f0b573d6000803e3d6000fd5b505050506040513d601f19601f82011682018060405250810190610f2f91906114d7565b5060019150509392505050565b60008060066000600254815260200190815260200160002090508381600901819055508260038190555060008385610f749190611583565b9050809250505092915050565b600080600660006002548152602001908152602001600020905083816009018190555082816001018190555060008484610fbb9190611440565b9050809250505092915050565b600080fd5b600073ffffffffffffffffffffffffffffffffffffffff82169050919050565b6000610ff882610fcd565b9050919050565b61100881610fed565b811461101357600080fd5b50565b60008135905061102581610fff565b92915050565b6000819050919050565b61103e8161102b565b811461104957600080fd5b50565b60008135905061105b81611035565b92915050565b600080600080600080600080610100898b03121561108257611081610fc8565b5b60006110908b828c01611016565b98505060206110a18b828c0161104c565b97505060406110b28b828c01611016565b96505060606110c38b828c01611016565b95505060806110d48b828c0161104c565b94505060a06110e58b828c0161104c565b93505060c06110f68b828c0161104c565b92505060e06111078b828c0161104c565b9150509295985092959890939650565b6111208161102b565b82525050565b600060208201905061113b6000830184611117565b92915050565b60006020828403121561115757611156610fc8565b5b60006111658482850161104c565b91505092915050565b7f4e487b7100000000000000000000000000000000000000000000000000000000600052602160045260246000fd5b600481106111ae576111ad61116e565b5b50565b60008190506111bf8261119d565b919050565b60006111cf826111b1565b9050919050565b6111df816111c4565b82525050565b6111ee81610fed565b82525050565b6000819050919050565b600061121961121461120f84610fcd565b6111f4565b610fcd565b9050919050565b600061122b826111fe565b9050919050565b600061123d82611220565b9050919050565b61124d81611232565b82525050565b600061016082019050611269600083018e6111d6565b611276602083018d611117565b611283604083018c611117565b611290606083018b611117565b61129d608083018a611117565b6112aa60a08301896111e5565b6112b760c08301886111e5565b6112c460e0830187611244565b6112d2610100830186611244565b6112e0610120830185611117565b6112ee610140830184611117565b9c9b505050505050505050505050565b60008115159050919050565b611313816112fe565b82525050565b600060208201905061132e600083018461130a565b92915050565b60006020828403121561134a57611349610fc8565b5b600061135884828501611016565b91505092915050565b60008060006060848603121561137a57611379610fc8565b5b60006113888682870161104c565b93505060206113998682870161104c565b92505060406113aa86828701611016565b9150509250925092565b60006020820190506113c960008301846111e5565b92915050565b6000815190506113de81611035565b92915050565b6000602082840312156113fa576113f9610fc8565b5b6000611408848285016113cf565b91505092915050565b7f4e487b7100000000000000000000000000000000000000000000000000000000600052601160045260246000fd5b600061144b8261102b565b91506114568361102b565b92508282101561146957611468611411565b5b828203905092915050565b600060608201905061148960008301866111e5565b61149660208301856111e5565b6114a36040830184611117565b949350505050565b6114b4816112fe565b81146114bf57600080fd5b50565b6000815190506114d1816114ab565b92915050565b6000602082840312156114ed576114ec610fc8565b5b60006114fb848285016114c2565b91505092915050565b600061150f8261102b565b915061151a8361102b565b9250827fffffffffffffffffffffffffffffffffffffffffffffffffffffffffffffffff0382111561154f5761154e611411565b5b828201905092915050565b600060408201905061156f60008301856111e5565b61157c6020830184611117565b9392505050565b600061158e8261102b565b91506115998361102b565b9250817fffffffffffffffffffffffffffffffffffffffffffffffffffffffffffffffff04831182151516156115d2576115d1611411565b5b82820290509291505056fea2646970667358221220e34bba599d707e77ea4b9fb4f3cc1eaeeb2e5e4a41c06b312ef06e80f0d7564564736f6c634300080b0033",
  "immutableReferences": {},
  "source": "pragma solidity 0.8.11;\r\n\r\nimport \"@openzeppelin/contracts/token/ERC20/IERC20.sol\";\r\nimport \"@openzeppelin/contracts/token/ERC20/ERC20.sol\";\r\nimport \"@openzeppelin/contracts/utils/math/SafeMath.sol\";\r\n\r\n\r\ncontract Ibere {  \r\n\r\nusing SafeMath for uint256;\r\n\r\nuint256 public activeLoans = 0;\r\nmapping(address => uint256) public lendersBalance;\r\nuint256 public id;\r\n\r\nuint256 a2zFee = 3;\r\n\r\nenum Status{initial, lent, paid, destroyed}\r\nStatus status;\r\nStatus constant defaultStatus = Status.initial;\r\n\r\n\r\n\r\nstruct Request{\r\n    Status status;\r\n    uint256 requestedAmount;\r\n    uint256 collvalue;\r\n    uint256 duration;\r\n    uint256 dueTime;\r\n\r\n    address borrower;\r\n    address lender;\r\n\r\n    IERC20 requestedToken;\r\n    IERC20 collToken;\r\n\r\n    uint256 interestRate;\r\n    uint256 expirationRequest;\r\n}\r\n\r\nRequest[] private loans;\r\nmapping(uint256 => Request) public requests;\r\n\r\nfunction createRequest(\r\n    address _borrower,\r\n    uint256 _requestedAmount,\r\n    address _requestedToken,\r\n    address  _collToken,\r\n    uint256 _expirationRequest,\r\n    uint256 _interestRate,\r\n    uint256 _collValue,\r\n    uint256 _duration\r\n) public returns (uint256){\r\n   // require(_borrower = msg.sender & _borrower != address(0));\r\n    require(_requestedAmount != 0);\r\n    require(_interestRate != 0);\r\n    require(_expirationRequest > block.timestamp);\r\n    require(IERC20(_collToken).balanceOf(msg.sender) >= _collValue);\r\n    \r\n    \r\n    Request storage request = requests[id];\r\n    request.status = Status.initial;\r\n    request.requestedAmount = _requestedAmount;\r\n    request.borrower = msg.sender;\r\n    request.lender = address(0);\r\n    request.requestedToken = IERC20(_requestedToken);\r\n    request.collToken = IERC20(_collToken);\r\n    request.duration = _duration;\r\n    request.expirationRequest = _expirationRequest;\r\n    request.interestRate = _interestRate;\r\n    request.collvalue = _collValue;\r\n    \r\n      loans.push(request);\r\n         uint256 id = loans.length - 1;\r\n      \r\n    \r\n     IERC20(_collToken).transferFrom(msg.sender, address(this), _collValue);\r\n\r\n     //emit Requestcreated(id, msg.sender);\r\n\r\n     return id;\r\n\r\n}\r\n\r\n\r\nfunction fillRequest(uint256 id) public returns(bool) {\r\n     Request storage request = requests[id];\r\n\r\n     request.status == Status.initial;\r\n     require(request.expirationRequest >= block.timestamp);\r\n     require(IERC20(request.requestedToken).balanceOf(msg.sender) >= request.requestedAmount);\r\n\r\n     request.lender = msg.sender;\r\n     request.dueTime = uint40(block.timestamp) + request.duration;\r\n     request.status = Status.lent;\r\n\r\n     activeLoans += 1;\r\n     lendersBalance[request.lender] += 1;\r\n     \r\n\r\n     uint256 feeLast = fee(request.interestRate, a2zFee);\r\n     \r\n     IERC20(request.requestedToken).transferFrom(msg.sender, address(this), feeLast);\r\n\r\n     uint256 lastAmount = resortAmount(request.interestRate, request.requestedAmount);\r\n\r\n     IERC20(request.requestedToken).transferFrom(msg.sender, request.borrower, lastAmount);\r\n\r\n    // emit requestedFilled(id, msg.sender);\r\n\r\n     return true;\r\n}\r\n\r\n\r\n \r\nfunction payLoan(uint256 id, uint256 _amount, address _from) public returns (bool){\r\n    Request storage request = requests[id];\r\n\r\n    request.status == Status.lent;\r\n    require(IERC20(request.requestedToken).balanceOf(msg.sender) >= _amount);\r\n\r\n    request.requestedAmount = _amount;\r\n    request.borrower = _from;\r\n\r\n    request.status = Status.paid;\r\n                   \r\n    activeLoans -= 1;\r\n    lendersBalance[request.lender] -=1;\r\n     \r\n     IERC20(request.collToken).transfer(_from, request.collvalue);\r\n     IERC20(request.requestedToken).transferFrom(msg.sender, request.lender, request.requestedAmount);\r\n\r\n     return true;\r\n}    \r\n\r\n\r\nfunction  fee(uint256 _interest, uint256 _a2zfee) internal returns (uint256) {\r\n Request storage request = requests[id];\r\n    request.interestRate = _interest;\r\n    a2zFee = _a2zfee;\r\n\r\n    uint256 fees =  _interest * _a2zfee ;\r\n\r\n    return fees;\r\n}\r\n\r\n\r\nfunction resortAmount(uint256 _interest, uint256 _amount) internal returns (uint256) {\r\n  Request storage request = requests[id];\r\n\r\n  request.interestRate  = _interest;\r\n  request.requestedAmount = _amount;\r\n\r\n    uint256 amount = _amount - _interest ;\r\n\r\n    return amount;\r\n\r\n}\r\n\r\nfunction liquidate(uint256 id) internal returns (bool){\r\n    Request storage request = requests[id];\r\n    request.status = Status.lent;\r\n    uint40(block.timestamp) <= request.duration;\r\n        lendersBalance[request.lender] -=1;\r\n        activeLoans -=1;\r\n\r\n        IERC20(request.collToken).transfer(request.lender, request.collvalue);\r\n\r\n        return true;\r\n    \r\n}\r\n\r\n\r\n\r\n\r\n    \r\n}",
  "sourcePath": "C:\\Users\\HP\\Desktop\\Yemisi\\contracts\\Ibere.sol",
  "compiler": {
    "name": "solc",
    "version": "0.8.11+commit.d7f03943.Emscripten.clang"
  },
  "schemaVersion": "3.4.4",
  "updatedAt": "2022-02-11T10:38:55.349Z",
  "devdoc": {
    "kind": "dev",
    "methods": {},
    "version": 1
  },
  "userdoc": {
    "kind": "user",
    "methods": {},
    "version": 1
  }
}