{
  "contractName": "lenderfile",
  "abi": [
    {
      "inputs": [],
      "name": "activeOffers",
      "outputs": [
        {
          "internalType": "uint256",
          "name": "",
          "type": "uint256"
        }
      ],
      "stateMutability": "view",
      "type": "function"
    },
    {
      "inputs": [
        {
          "internalType": "address",
          "name": "",
          "type": "address"
        }
      ],
      "name": "borrowersBalance",
      "outputs": [
        {
          "internalType": "uint256",
          "name": "",
          "type": "uint256"
        }
      ],
      "stateMutability": "view",
      "type": "function"
    },
    {
      "inputs": [],
      "name": "id",
      "outputs": [
        {
          "internalType": "uint256",
          "name": "",
          "type": "uint256"
        }
      ],
      "stateMutability": "view",
      "type": "function"
    },
    {
      "inputs": [
        {
          "internalType": "uint256",
          "name": "",
          "type": "uint256"
        }
      ],
      "name": "offers",
      "outputs": [
        {
          "internalType": "enum lenderfile.Status",
          "name": "status",
          "type": "uint8"
        },
        {
          "internalType": "uint256",
          "name": "offeredAmount",
          "type": "uint256"
        },
        {
          "internalType": "uint256",
          "name": "collValue",
          "type": "uint256"
        },
        {
          "internalType": "uint256",
          "name": "duration",
          "type": "uint256"
        },
        {
          "internalType": "uint256",
          "name": "dueTime",
          "type": "uint256"
        },
        {
          "internalType": "contract IERC20",
          "name": "offerToken",
          "type": "address"
        },
        {
          "internalType": "contract IERC20",
          "name": "acceptedColl",
          "type": "address"
        },
        {
          "internalType": "address",
          "name": "lender",
          "type": "address"
        },
        {
          "internalType": "address",
          "name": "borrower",
          "type": "address"
        },
        {
          "internalType": "uint256",
          "name": "interestRate",
          "type": "uint256"
        },
        {
          "internalType": "uint256",
          "name": "expirationOffer",
          "type": "uint256"
        }
      ],
      "stateMutability": "view",
      "type": "function"
    },
    {
      "inputs": [
        {
          "internalType": "address",
          "name": "_offerToken",
          "type": "address"
        },
        {
          "internalType": "uint256",
          "name": "_offeredAmount",
          "type": "uint256"
        },
        {
          "internalType": "uint256",
          "name": "_collvalue",
          "type": "uint256"
        },
        {
          "internalType": "address",
          "name": "_acceptedColl",
          "type": "address"
        },
        {
          "internalType": "uint256",
          "name": "_duration",
          "type": "uint256"
        },
        {
          "internalType": "uint256",
          "name": "_expirationOffer",
          "type": "uint256"
        },
        {
          "internalType": "uint256",
          "name": "_interestRate",
          "type": "uint256"
        }
      ],
      "name": "createOffer",
      "outputs": [
        {
          "internalType": "uint256",
          "name": "",
          "type": "uint256"
        }
      ],
      "stateMutability": "nonpayable",
      "type": "function"
    },
    {
      "inputs": [
        {
          "internalType": "uint256",
          "name": "id",
          "type": "uint256"
        },
        {
          "internalType": "address",
          "name": "_owner",
          "type": "address"
        }
      ],
      "name": "takeOffer",
      "outputs": [
        {
          "internalType": "bool",
          "name": "",
          "type": "bool"
        }
      ],
      "stateMutability": "nonpayable",
      "type": "function"
    },
    {
      "inputs": [
        {
          "internalType": "uint256",
          "name": "id",
          "type": "uint256"
        }
      ],
      "name": "payLoan",
      "outputs": [
        {
          "internalType": "bool",
          "name": "",
          "type": "bool"
        }
      ],
      "stateMutability": "nonpayable",
      "type": "function"
    }
  ],
  "bytecode": "0x6080604052735b38da6a701c568545dcfcb03fcb875f56beddc46000806101000a81548173ffffffffffffffffffffffffffffffffffffffff021916908373ffffffffffffffffffffffffffffffffffffffff160217905550600060015534801561006957600080fd5b50611624806100796000396000f3fe608060405234801561001057600080fd5b506004361061007d5760003560e01c80638a72ea6a1161005b5780638a72ea6a14610112578063a8d7b3ec1461014c578063af640d0f1461017c578063f6d492711461019a5761007d565b80632b04d8f7146100825780637a44c7ea146100b25780637ea9d54e146100e2575b600080fd5b61009c60048036038101906100979190611099565b6101b8565b6040516100a991906110f4565b60405180910390f35b6100cc60048036038101906100c7919061110f565b61066f565b6040516100d991906111c0565b60405180910390f35b6100fc60048036038101906100f791906111db565b610b52565b60405161010991906111c0565b60405180910390f35b61012c60048036038101906101279190611208565b610b6a565b6040516101439b9a9998979695949392919061131a565b60405180910390f35b61016660048036038101906101619190611208565b610c51565b60405161017391906110f4565b60405180910390f35b610184610f18565b60405161019191906111c0565b60405180910390f35b6101a2610f1e565b6040516101af91906111c0565b60405180910390f35b60008060076000858152602001908152602001600020905060008160000160006101000a81548160ff021916908360038111156101f8576101f7611235565b5b0217905550828160080160006101000a81548173ffffffffffffffffffffffffffffffffffffffff021916908373ffffffffffffffffffffffffffffffffffffffff16021790555080600301544264ffffffffff1661025791906113f4565b81600301819055508060050160009054906101000a9050508060060160009054906101000a90505060018160000160006101000a81548160ff021916908360038111156102a7576102a6611235565b5b021790555060018060008282546102be91906113f4565b925050819055506001600260008360080160009054906101000a900473ffffffffffffffffffffffffffffffffffffffff1673ffffffffffffffffffffffffffffffffffffffff1673ffffffffffffffffffffffffffffffffffffffff168152602001908152602001600020600082825461033991906113f4565b925050819055508060060160009054906101000a900473ffffffffffffffffffffffffffffffffffffffff1673ffffffffffffffffffffffffffffffffffffffff166323b872dd843084600201546040518463ffffffff1660e01b81526004016103a59392919061144a565b6020604051808303816000875af11580156103c4573d6000803e3d6000fd5b505050506040513d601f19601f820116820180604052508101906103e891906114ad565b5060006103fd82600101548360090154610f24565b90508160050160009054906101000a900473ffffffffffffffffffffffffffffffffffffffff1673ffffffffffffffffffffffffffffffffffffffff1663a9059cbb85836040518363ffffffff1660e01b815260040161045e9291906114da565b6020604051808303816000875af115801561047d573d6000803e3d6000fd5b505050506040513d601f19601f820116820180604052508101906104a191906114ad565b5060006104c183600901546104bc8560090154600454610f6b565b610fb0565b90508260050160009054906101000a900473ffffffffffffffffffffffffffffffffffffffff1673ffffffffffffffffffffffffffffffffffffffff1663a9059cbb8460070160009054906101000a900473ffffffffffffffffffffffffffffffffffffffff16836040518363ffffffff1660e01b81526004016105469291906114da565b6020604051808303816000875af1158015610565573d6000803e3d6000fd5b505050506040513d601f19601f8201168201806040525081019061058991906114ad565b50600061059c8460090154600454610f6b565b90508360050160009054906101000a900473ffffffffffffffffffffffffffffffffffffffff1673ffffffffffffffffffffffffffffffffffffffff1663a9059cbb60008054906101000a900473ffffffffffffffffffffffffffffffffffffffff16836040518363ffffffff1660e01b815260040161061d9291906114da565b6020604051808303816000875af115801561063c573d6000803e3d6000fd5b505050506040513d601f19601f8201168201806040525081019061066091906114ad565b50600194505050505092915050565b60008087141561067e57600080fd5b868873ffffffffffffffffffffffffffffffffffffffff166370a08231336040518263ffffffff1660e01b81526004016106b89190611503565b602060405180830381865afa1580156106d5573d6000803e3d6000fd5b505050506040513d601f19601f820116820180604052508101906106f99190611533565b101561070457600080fd5b600082141561071257600080fd5b600084141561072057600080fd5b42831161072c57600080fd5b6000600760006003548152602001908152602001600020905060008160000160006101000a81548160ff0219169083600381111561076d5761076c611235565b5b0217905550878160010181905550338160070160006101000a81548173ffffffffffffffffffffffffffffffffffffffff021916908373ffffffffffffffffffffffffffffffffffffffff160217905550888160050160006101000a81548173ffffffffffffffffffffffffffffffffffffffff021916908373ffffffffffffffffffffffffffffffffffffffff160217905550858160060160006101000a81548173ffffffffffffffffffffffffffffffffffffffff021916908373ffffffffffffffffffffffffffffffffffffffff1602179055508481600301819055508381600a018190555082816009018190555086816002018190555060068190806001815401808255809150506001900390600052602060002090600b02016000909190919091506000820160009054906101000a900460ff168160000160006101000a81548160ff021916908360038111156108cc576108cb611235565b5b0217905550600182015481600101556002820154816002015560038201548160030155600482015481600401556005820160009054906101000a900473ffffffffffffffffffffffffffffffffffffffff168160050160006101000a81548173ffffffffffffffffffffffffffffffffffffffff021916908373ffffffffffffffffffffffffffffffffffffffff1602179055506006820160009054906101000a900473ffffffffffffffffffffffffffffffffffffffff168160060160006101000a81548173ffffffffffffffffffffffffffffffffffffffff021916908373ffffffffffffffffffffffffffffffffffffffff1602179055506007820160009054906101000a900473ffffffffffffffffffffffffffffffffffffffff168160070160006101000a81548173ffffffffffffffffffffffffffffffffffffffff021916908373ffffffffffffffffffffffffffffffffffffffff1602179055506008820160009054906101000a900473ffffffffffffffffffffffffffffffffffffffff168160080160006101000a81548173ffffffffffffffffffffffffffffffffffffffff021916908373ffffffffffffffffffffffffffffffffffffffff16021790555060098201548160090155600a82015481600a0155505060006001600680549050610abf9190611560565b90508973ffffffffffffffffffffffffffffffffffffffff166323b872dd33308c6040518463ffffffff1660e01b8152600401610afe9392919061144a565b6020604051808303816000875af1158015610b1d573d6000803e3d6000fd5b505050506040513d601f19601f82011682018060405250810190610b4191906114ad565b508092505050979650505050505050565b60026020528060005260406000206000915090505481565b60076020528060005260406000206000915090508060000160009054906101000a900460ff16908060010154908060020154908060030154908060040154908060050160009054906101000a900473ffffffffffffffffffffffffffffffffffffffff16908060060160009054906101000a900473ffffffffffffffffffffffffffffffffffffffff16908060070160009054906101000a900473ffffffffffffffffffffffffffffffffffffffff16908060080160009054906101000a900473ffffffffffffffffffffffffffffffffffffffff169080600901549080600a015490508b565b60008060076000848152602001908152602001600020905060018160000160006101000a81548160ff02191690836003811115610c9157610c90611235565b5b0217905550338160080160006101000a81548173ffffffffffffffffffffffffffffffffffffffff021916908373ffffffffffffffffffffffffffffffffffffffff16021790555060028160000160006101000a81548160ff02191690836003811115610d0157610d00611235565b5b02179055506001806000828254610d189190611560565b925050819055506001600260008360080160009054906101000a900473ffffffffffffffffffffffffffffffffffffffff1673ffffffffffffffffffffffffffffffffffffffff1673ffffffffffffffffffffffffffffffffffffffff1681526020019081526020016000206000828254610d939190611560565b925050819055508060060160009054906101000a900473ffffffffffffffffffffffffffffffffffffffff1673ffffffffffffffffffffffffffffffffffffffff1663a9059cbb3383600201546040518363ffffffff1660e01b8152600401610dfd9291906114da565b6020604051808303816000875af1158015610e1c573d6000803e3d6000fd5b505050506040513d601f19601f82011682018060405250810190610e4091906114ad565b508060050160009054906101000a900473ffffffffffffffffffffffffffffffffffffffff1673ffffffffffffffffffffffffffffffffffffffff166323b872dd338360070160009054906101000a900473ffffffffffffffffffffffffffffffffffffffff1684600101546040518463ffffffff1660e01b8152600401610eca9392919061144a565b6020604051808303816000875af1158015610ee9573d6000803e3d6000fd5b505050506040513d601f19601f82011682018060405250810190610f0d91906114ad565b506001915050919050565b60035481565b60015481565b600080600760006003548152602001908152602001600020905083816001018190555082816009018190555060008385610f5e9190611560565b9050809250505092915050565b60008060076000600354815260200190815260200160002090508381600901819055508260048190555060008385610fa39190611594565b9050809250505092915050565b6000806007600060035481526020019081526020016000209050838160090181905550610fe38160090154600454610f6b565b925060008385610ff39190611560565b9050809250505092915050565b600080fd5b6000819050919050565b61101881611005565b811461102357600080fd5b50565b6000813590506110358161100f565b92915050565b600073ffffffffffffffffffffffffffffffffffffffff82169050919050565b60006110668261103b565b9050919050565b6110768161105b565b811461108157600080fd5b50565b6000813590506110938161106d565b92915050565b600080604083850312156110b0576110af611000565b5b60006110be85828601611026565b92505060206110cf85828601611084565b9150509250929050565b60008115159050919050565b6110ee816110d9565b82525050565b600060208201905061110960008301846110e5565b92915050565b600080600080600080600060e0888a03121561112e5761112d611000565b5b600061113c8a828b01611084565b975050602061114d8a828b01611026565b965050604061115e8a828b01611026565b955050606061116f8a828b01611084565b94505060806111808a828b01611026565b93505060a06111918a828b01611026565b92505060c06111a28a828b01611026565b91505092959891949750929550565b6111ba81611005565b82525050565b60006020820190506111d560008301846111b1565b92915050565b6000602082840312156111f1576111f0611000565b5b60006111ff84828501611084565b91505092915050565b60006020828403121561121e5761121d611000565b5b600061122c84828501611026565b91505092915050565b7f4e487b7100000000000000000000000000000000000000000000000000000000600052602160045260246000fd5b6004811061127557611274611235565b5b50565b600081905061128682611264565b919050565b600061129682611278565b9050919050565b6112a68161128b565b82525050565b6000819050919050565b60006112d16112cc6112c78461103b565b6112ac565b61103b565b9050919050565b60006112e3826112b6565b9050919050565b60006112f5826112d8565b9050919050565b611305816112ea565b82525050565b6113148161105b565b82525050565b600061016082019050611330600083018e61129d565b61133d602083018d6111b1565b61134a604083018c6111b1565b611357606083018b6111b1565b611364608083018a6111b1565b61137160a08301896112fc565b61137e60c08301886112fc565b61138b60e083018761130b565b61139961010083018661130b565b6113a76101208301856111b1565b6113b56101408301846111b1565b9c9b505050505050505050505050565b7f4e487b7100000000000000000000000000000000000000000000000000000000600052601160045260246000fd5b60006113ff82611005565b915061140a83611005565b9250827fffffffffffffffffffffffffffffffffffffffffffffffffffffffffffffffff0382111561143f5761143e6113c5565b5b828201905092915050565b600060608201905061145f600083018661130b565b61146c602083018561130b565b61147960408301846111b1565b949350505050565b61148a816110d9565b811461149557600080fd5b50565b6000815190506114a781611481565b92915050565b6000602082840312156114c3576114c2611000565b5b60006114d184828501611498565b91505092915050565b60006040820190506114ef600083018561130b565b6114fc60208301846111b1565b9392505050565b6000602082019050611518600083018461130b565b92915050565b60008151905061152d8161100f565b92915050565b60006020828403121561154957611548611000565b5b60006115578482850161151e565b91505092915050565b600061156b82611005565b915061157683611005565b925082821015611589576115886113c5565b5b828203905092915050565b600061159f82611005565b91506115aa83611005565b9250817fffffffffffffffffffffffffffffffffffffffffffffffffffffffffffffffff04831182151516156115e3576115e26113c5565b5b82820290509291505056fea2646970667358221220bf0d571b80085a571cc03992ae082e2a4dd3ff765ed26a35f446904fad0811f364736f6c634300080b0033",
  "immutableReferences": {},
  "source": "pragma solidity 0.8.11;\r\n\r\nimport \"@openzeppelin/contracts/token/ERC20/IERC20.sol\";\r\nimport \"@openzeppelin/contracts/token/ERC20/ERC20.sol\";\r\nimport \"@openzeppelin/contracts/utils/math/SafeMath.sol\";\r\n\r\ncontract  lenderfile{\r\n    \r\n     using SafeMath for uint256;\r\n       \r\n       /* purpose of this smart contract :\r\n       * lender creaate a loan offer and pushed to market\r\n       *borrower take loan \r\n       *borrower pays back loan\r\n       *liquidate borrower and take collateral if borrower defaults\r\n        */\r\n   \r\n       address private a2zRevenue = 0x5B38Da6a701c568545dCfcB03FcB875f56beddC4;\r\n\r\n      uint256 public activeOffers = 0;\r\n      mapping(address => uint256) public borrowersBalance;\r\n      uint256 public id;\r\n      uint256 a2zfee;\r\n   \r\n       enum Status { initial, lent, paid, destroyed }\r\n           Status status;\r\n           Status constant defaultStatus = Status.initial;\r\n\r\n         //uint256 a2zfee;\r\n\r\n        struct Offer{\r\n         Status status;\r\n         uint256 offeredAmount;\r\n         uint256 collValue;\r\n         uint256 duration;\r\n         uint256 dueTime; \r\n         \r\n         IERC20 offerToken;\r\n         IERC20 acceptedColl;\r\n\r\n         address lender;\r\n         address borrower;\r\n\r\n         uint256 interestRate;\r\n         uint256 expirationOffer;\r\n        }\r\n\r\n        Offer[] private loans;\r\n        mapping(uint256 => Offer) public offers;\r\n\r\n   \r\n   /* +createOffer function makes the lender set his loan term and at that instant the money he is lending \r\n    will be withdran from his wallet and locked in this contract  *\r\n     */\r\n     function createOffer(\r\n        address _offerToken,\r\n        uint256 _offeredAmount, \r\n        uint256 _collvalue,\r\n        address _acceptedColl, \r\n        uint256 _duration,\r\n        uint256 _expirationOffer,\r\n        uint256 _interestRate\r\n         ) public returns (uint256) {\r\n     // offer.lender == msg.sender;\r\n\r\n      require(_offeredAmount != 0);\r\n      require(IERC20(_offerToken).balanceOf(msg.sender) >= _offeredAmount);\r\n      require(_interestRate != 0); \r\n      require(_duration != 0);\r\n      require(_expirationOffer > block.timestamp);\r\n\r\n      Offer storage offer = offers[id];\r\n    offer.status = Status.initial;\r\n    offer.offeredAmount = _offeredAmount;\r\n    //offer.borrower = address(0);\r\n    offer.lender = msg.sender;\r\n    offer.offerToken = IERC20(_offerToken);\r\n    offer.acceptedColl = IERC20(_acceptedColl);\r\n    offer.duration = _duration;\r\n    offer.expirationOffer = _expirationOffer;\r\n    offer.interestRate = _interestRate;\r\n    offer.collValue = _collvalue;\r\n    \r\n\r\n        loans.push(offer);\r\n         uint256 id = loans.length - 1;\r\n\r\n         IERC20(_offerToken).transferFrom(msg.sender, address(this), _offeredAmount);\r\n\r\n        return id;\r\n\r\n   }\r\n\r\n/* this function is called by a borrwer who find interest in the loan terms and ready to take it.\r\n the borroer must provide the right collateral and at the instant of calling this function the collateraal is withdrawn from his wallet and locked uptill payment time \r\n */\r\n  function takeOffer(uint256 id, address _owner) public returns (bool) {\r\n\r\n     Offer storage offer = offers[id];\r\n\r\n     offer.status = Status.initial;\r\n     offer.borrower = _owner;\r\n     offer.duration = uint40(block.timestamp) + offer.duration;\r\n     IERC20(offer.offerToken);\r\n     offer.collValue;\r\n     IERC20(offer.acceptedColl);\r\n\r\n     offer.status = Status.lent;\r\n\r\n     activeOffers += 1;\r\n     borrowersBalance[offer.borrower] += 1;\r\n\r\n     /* withdrawing the collateral as the borrower is taking a loan offer */\r\n     IERC20(offer.acceptedColl).transferFrom(_owner, address(this), offer.collValue);\r\n\r\n     /* sending the loan amount to the borrower */\r\n      uint256 resortAmount = lastResortAmount(offer.offeredAmount, offer.interestRate);\r\n      IERC20(offer.offerToken).transfer(_owner, resortAmount);\r\n\r\n\r\n\r\n      uint256 lendersProfit = feeNum(offer.interestRate, feeDen(offer.interestRate, a2zfee));\r\n      IERC20(offer.offerToken).transfer(offer.lender, lendersProfit); \r\n\r\n      uint256 azFinRevenue = feeDen(offer.interestRate, a2zfee);\r\n      IERC20(offer.offerToken).transfer(a2zRevenue, azFinRevenue);\r\n\r\n     // emit offerTaken(id, _owner);\r\n\r\n     return true;\r\n      \r\n  }\r\n\r\n \r\n  function payLoan(uint256 id) public  returns (bool) {\r\n     Offer storage offer = offers[id];\r\n\r\n     offer.status = Status.lent; \r\n\r\n     offer.borrower = msg.sender;  \r\n      offer.offeredAmount;\r\n\r\n     offer.status = Status.paid;\r\n   \r\n \r\n     activeOffers -= 1;\r\n     borrowersBalance[offer.borrower] -= 1;\r\n     // withdrawing collateral from the contract and send to the borrower at loan payment instance *\r\n     IERC20(offer.acceptedColl).transfer(msg.sender, offer.collValue);\r\n\r\n    // Taking the payment from borrower's wallet at instance of loan payment *\r\n     IERC20(offer.offerToken).transferFrom(msg.sender, offer.lender, offer.offeredAmount);\r\n\r\n   //  emit LoanPaid(id, msg.sender);\r\n\r\n     return true;  \r\n     \r\n  }\r\n\r\n  \r\n\r\n   function lastResortAmount(uint256 _offerAmount, uint256 _interest) internal returns (uint256) {\r\n      Offer storage offer = offers[id];\r\n     \r\n     offer.offeredAmount = _offerAmount;\r\n     offer.interestRate = _interest;\r\n\r\n     uint256 endAmount = _offerAmount - _interest;\r\n\r\n     return endAmount;  \r\n\r\n   }\r\n\r\n   function feeDen(uint256 _tot, uint256 _tatn) internal returns (uint256){\r\n      Offer storage offer = offers[id];\r\n\r\n      offer.interestRate = _tot;\r\n      a2zfee = _tatn;\r\n\r\n      uint256 ketos  = _tot * _tatn;\r\n\r\n      return ketos;\r\n   }\r\n\r\n   function feeNum(uint256 _cal, uint256 _coc) internal returns (uint256){\r\n      Offer storage offer = offers[id];\r\n\r\n      offer.interestRate = _cal;\r\n       _coc = feeDen(offer.interestRate, a2zfee);\r\n\r\n      uint256 calc = _cal - _coc;\r\n\r\n      return calc;\r\n   }\r\n\r\n/*todo \r\n\r\nliquidation machine function\r\npls i need help to make this and i will apprecaite help from the expert here..thanks\r\n**/\r\n}\r\n",
  "sourcePath": "C:\\Users\\HP\\Desktop\\Yemisi\\contracts\\lender.sol",
  "compiler": {
    "name": "solc",
    "version": "0.8.11+commit.d7f03943.Emscripten.clang"
  },
  "schemaVersion": "3.4.4",
  "updatedAt": "2022-02-11T10:38:55.412Z",
  "devdoc": {
    "kind": "dev",
    "methods": {},
    "version": 1
  },
  "userdoc": {
    "kind": "user",
    "methods": {},
    "version": 1
  }
}