{
  "contractName": "p2ploan",
  "abi": [
    {
      "inputs": [
        {
          "internalType": "contract IERC20",
          "name": "_a2z",
          "type": "address"
        }
      ],
      "stateMutability": "nonpayable",
      "type": "constructor"
    },
    {
      "inputs": [],
      "name": "a2z",
      "outputs": [
        {
          "internalType": "contract IERC20",
          "name": "",
          "type": "address"
        }
      ],
      "stateMutability": "view",
      "type": "function"
    },
    {
      "inputs": [
        {
          "internalType": "address",
          "name": "_borrower",
          "type": "address"
        },
        {
          "internalType": "address",
          "name": "_loanToken",
          "type": "address"
        },
        {
          "internalType": "address",
          "name": "_collateralToken",
          "type": "address"
        },
        {
          "internalType": "uint256",
          "name": "_amount",
          "type": "uint256"
        },
        {
          "internalType": "uint256",
          "name": "_collateralValue",
          "type": "uint256"
        },
        {
          "internalType": "uint256",
          "name": "_payOffAmount",
          "type": "uint256"
        },
        {
          "internalType": "uint256",
          "name": "_dueDate",
          "type": "uint256"
        },
        {
          "internalType": "uint256",
          "name": "_interestRate",
          "type": "uint256"
        },
        {
          "internalType": "uint256",
          "name": "_LTV",
          "type": "uint256"
        },
        {
          "internalType": "uint256",
          "name": "_expirationRequest",
          "type": "uint256"
        }
      ],
      "name": "requestLoan",
      "outputs": [
        {
          "internalType": "uint256",
          "name": "",
          "type": "uint256"
        }
      ],
      "stateMutability": "nonpayable",
      "type": "function"
    },
    {
      "inputs": [
        {
          "internalType": "uint256",
          "name": "id",
          "type": "uint256"
        }
      ],
      "name": "approveLoan",
      "outputs": [
        {
          "internalType": "bool",
          "name": "",
          "type": "bool"
        }
      ],
      "stateMutability": "view",
      "type": "function"
    }
  ],
  "bytecode": "0x608060405234801561001057600080fd5b50604051610b30380380610b30833981810160405281019061003291906100ed565b806000806101000a81548173ffffffffffffffffffffffffffffffffffffffff021916908373ffffffffffffffffffffffffffffffffffffffff1602179055505061011a565b600080fd5b600073ffffffffffffffffffffffffffffffffffffffff82169050919050565b60006100a88261007d565b9050919050565b60006100ba8261009d565b9050919050565b6100ca816100af565b81146100d557600080fd5b50565b6000815190506100e7816100c1565b92915050565b60006020828403121561010357610102610078565b5b6000610111848285016100d8565b91505092915050565b610a07806101296000396000f3fe608060405234801561001057600080fd5b50600436106100415760003560e01c80634d01d839146100465780636f6bf16314610076578063aadc1ac114610094575b600080fd5b610060600480360381019061005b919061072a565b6100c4565b60405161006d9190610818565b60405180910390f35b61007e610422565b60405161008b9190610892565b60405180910390f35b6100ae60048036038101906100a991906108ad565b610446565b6040516100bb91906108f5565b60405180910390f35b60008073ffffffffffffffffffffffffffffffffffffffff168b73ffffffffffffffffffffffffffffffffffffffff1614156100ff57600080fd5b600088141561010d57600080fd5b600084141561011b57600080fd5b600085141561012957600080fd5b42821161013557600080fd5b60006040518061018001604052806000600381111561015757610156610910565b5b81526020018c73ffffffffffffffffffffffffffffffffffffffff1681526020018b73ffffffffffffffffffffffffffffffffffffffff168152602001600073ffffffffffffffffffffffffffffffffffffffff1681526020018d73ffffffffffffffffffffffffffffffffffffffff1681526020018a815260200189815260200188815260200187815260200186815260200185815260200184815250905060018190806001815401808255809150506001900390600052602060002090600b020160009091909190915060008201518160000160006101000a81548160ff0219169083600381111561024e5761024d610910565b5b021790555060208201518160000160016101000a81548173ffffffffffffffffffffffffffffffffffffffff021916908373ffffffffffffffffffffffffffffffffffffffff16021790555060408201518160010160006101000a81548173ffffffffffffffffffffffffffffffffffffffff021916908373ffffffffffffffffffffffffffffffffffffffff16021790555060608201518160020160006101000a81548173ffffffffffffffffffffffffffffffffffffffff021916908373ffffffffffffffffffffffffffffffffffffffff16021790555060808201518160030160006101000a81548173ffffffffffffffffffffffffffffffffffffffff021916908373ffffffffffffffffffffffffffffffffffffffff16021790555060a0820151816004015560c0820151816005015560e0820151816006015561010082015181600701556101208201518160080155610140820151816009015561016082015181600a015550506000600180805490506103ce919061096e565b90508c73ffffffffffffffffffffffffffffffffffffffff163373ffffffffffffffffffffffffffffffffffffffff16141561040f5761040d81610446565b505b80925050509a9950505050505050505050565b60008054906101000a900473ffffffffffffffffffffffffffffffffffffffff1681565b6000806001838154811061045d5761045c6109a2565b5b90600052602060002090600b0201604051806101800160405290816000820160009054906101000a900460ff16600381111561049c5761049b610910565b5b60038111156104ae576104ad610910565b5b81526020016000820160019054906101000a900473ffffffffffffffffffffffffffffffffffffffff1673ffffffffffffffffffffffffffffffffffffffff1673ffffffffffffffffffffffffffffffffffffffff1681526020016001820160009054906101000a900473ffffffffffffffffffffffffffffffffffffffff1673ffffffffffffffffffffffffffffffffffffffff1673ffffffffffffffffffffffffffffffffffffffff1681526020016002820160009054906101000a900473ffffffffffffffffffffffffffffffffffffffff1673ffffffffffffffffffffffffffffffffffffffff1673ffffffffffffffffffffffffffffffffffffffff1681526020016003820160009054906101000a900473ffffffffffffffffffffffffffffffffffffffff1673ffffffffffffffffffffffffffffffffffffffff1673ffffffffffffffffffffffffffffffffffffffff168152602001600482015481526020016005820154815260200160068201548152602001600782015481526020016008820154815260200160098201548152602001600a8201548152505090506000600381111561066657610665610910565b5b8160000151600381111561067d5761067c610910565b5b1461068757600080fd5b6001915050919050565b600080fd5b600073ffffffffffffffffffffffffffffffffffffffff82169050919050565b60006106c182610696565b9050919050565b6106d1816106b6565b81146106dc57600080fd5b50565b6000813590506106ee816106c8565b92915050565b6000819050919050565b610707816106f4565b811461071257600080fd5b50565b600081359050610724816106fe565b92915050565b6000806000806000806000806000806101408b8d03121561074e5761074d610691565b5b600061075c8d828e016106df565b9a5050602061076d8d828e016106df565b995050604061077e8d828e016106df565b985050606061078f8d828e01610715565b97505060806107a08d828e01610715565b96505060a06107b18d828e01610715565b95505060c06107c28d828e01610715565b94505060e06107d38d828e01610715565b9350506101006107e58d828e01610715565b9250506101206107f78d828e01610715565b9150509295989b9194979a5092959850565b610812816106f4565b82525050565b600060208201905061082d6000830184610809565b92915050565b6000819050919050565b600061085861085361084e84610696565b610833565b610696565b9050919050565b600061086a8261083d565b9050919050565b600061087c8261085f565b9050919050565b61088c81610871565b82525050565b60006020820190506108a76000830184610883565b92915050565b6000602082840312156108c3576108c2610691565b5b60006108d184828501610715565b91505092915050565b60008115159050919050565b6108ef816108da565b82525050565b600060208201905061090a60008301846108e6565b92915050565b7f4e487b7100000000000000000000000000000000000000000000000000000000600052602160045260246000fd5b7f4e487b7100000000000000000000000000000000000000000000000000000000600052601160045260246000fd5b6000610979826106f4565b9150610984836106f4565b9250828210156109975761099661093f565b5b828203905092915050565b7f4e487b7100000000000000000000000000000000000000000000000000000000600052603260045260246000fdfea2646970667358221220554ab5afef6cff99dbe52c57558a00f5566724397594ac6a9c2a1ed08689f2cd64736f6c634300080a0033",
  "immutableReferences": {},
  "source": "pragma solidity 0.8.10;\r\n\r\nimport \"@openzeppelin/contracts/token/ERC20/utils/SafeERC20.sol\";\r\nimport \"@openzeppelin/contracts/token/ERC20/ERC20.sol\";\r\n\r\ncontract p2ploan{\r\nusing SafeERC20 for IERC20;\r\nIERC20 public a2z;\r\n\r\n enum Status { initial, lent, paid, destroyed }\r\n           Status status;\r\n           Status constant defaultStatus = Status.initial;\r\n\r\nstruct Loan {\r\nStatus status;\r\naddress  loanToken;\r\naddress  collateralToken;\r\naddress  lender;\r\naddress  borrower;\r\nuint256  amount;\r\nuint256  collateralValue;\r\nuint256  payoffAmount;\r\nuint256  dueDate;\r\nuint256  interestRate;\r\nuint256  LTV;\r\nuint256  expirationRequest;\r\n}\r\n///mapping(uint256 => Loan) public loanLookup;\r\n Loan[] private loans;\r\n\r\n\r\nconstructor(IERC20 _a2z){\r\n    a2z = _a2z;\r\n   \r\n}\r\n\r\nfunction requestLoan(address _borrower, address _loanToken, address _collateralToken, uint256 _amount, uint256 _collateralValue,  uint256 _payOffAmount,uint256 _dueDate, uint256 _interestRate, uint256 _LTV, uint256 _expirationRequest)public returns(uint256) {\r\n    require(_borrower != address(0));\r\n    require(_amount != 0);\r\n    require(_interestRate != 0); \r\n    require(_dueDate != 0);\r\n    require(_expirationRequest > block.timestamp);\r\n\r\n Loan memory Id = Loan (\r\n         Status.initial,\r\n        _loanToken,\r\n        _collateralToken,\r\n         address(0),\r\n        _borrower,\r\n        _amount,\r\n        _collateralValue,\r\n        _payOffAmount,\r\n        _dueDate,\r\n        _interestRate,\r\n        _LTV,\r\n        _expirationRequest\r\n );\r\n\r\n /// uint256 id = loans.push(id) -1;\r\n       loans.push(Id);\r\n       uint256 id = loans.length - 1;\r\n\r\n          if (msg.sender == _borrower) {\r\n            approveLoan(id); \r\n        }\r\n\r\n        return id;\r\n    }\r\n\r\n\r\n     function approveLoan(uint256 id) public view returns(bool) {\r\n     Loan memory loan = loans[id];\r\n     require(loan.status == Status.initial);\r\n     return true;\r\n     \r\n  }\r\n\r\n\r\n\r\n\r\n\r\n\r\n\r\n\r\n\r\n\r\n\r\n\r\n\r\n}",
  "sourcePath": "C:\\Users\\HP\\Desktop\\Yemisi\\contracts\\loanprotocol.sol",
  "compiler": {
    "name": "solc",
    "version": "0.8.10+commit.fc410830.Emscripten.clang"
  },
  "schemaVersion": "3.4.4",
  "updatedAt": "2021-12-24T09:11:47.965Z",
  "devdoc": {
    "kind": "dev",
    "methods": {},
    "version": 1
  },
  "userdoc": {
    "kind": "user",
    "methods": {},
    "version": 1
  }
}